:100000000C942A000C9434000C9434000C943400AA
:100010000C9434000C9434000C9434000C94340090
:100020000C9434000C9434000C9434000C94340080
:100030000C9434000C9434000C9434000C94340070
:100040000C9434000C9434000C9434000C94340060
:100050000C94340011241FBECFE5D4E0DEBFCDBF29
:100060000E943D000C944E000C94000086EC86B972
:10007000349BFECF84B195B1089580E487B986E8BA
:1000800086B98BE683BF88E087BB12BE1CBE0E9488
:1000900036008CBF08B600FEFDCFF9CFF894FFCF35
:00000001FF
