S0180000554152542D5472616E736D69747465722E7372656306
S11300000C942A000C943F000C943F000C943F0085
S11300100C943F000C943F000C943F000C943F0060
S11300200C943F000C943F000C943F000C943F0050
S11300300C943F000C943F000C943F000C943F0040
S11300400C943F000C943F000C943F000C943F0030
S11300500C943F0011241FBECFE5D4E0DEBFCDBF1A
S113006010E0A0E6B0E0E4EFF0E002C005900D92ED
S1130070A836B107D9F70E9441000C9478000C947B
S11300800000CF93DF93CDB7DEB728970FB6F8946F
S1130090DEBF0FBECDBF82E081BB10BC83E389B954
S11300A088E08AB986EA80BD88E0E0E6F0E0DE0117
S11300B0119601900D928A95E1F780E090E014C0CA
S11300C05D9BFECFE1E0F0E0EC0FFD1FE80FF91FB0
S11300D020812CB92FEF30E742E0215030404040DE
S11300E0E1F700C000000196883091054CF3E5CF9C
S10700F0F894FFCFAE
S10B00F4476F70616C0D0A00F6
S9030000FC
