S016000054696D65722077697468204C43442E737265633E
S11300000C942A000C943F000C943F000C943F0085
S11300100C943F000C943F000C943F000C943F0060
S11300200C943F000C943F000C943F000C943F0050
S11300300C943F000C943F000C943F000C943F0040
S11300400C943F000C943F000C943F000C943F0030
S11300500C943F0011241FBECFE5D4E0DEBFCDBF1A
S113006010E0A0E6B0E0ECEBF1E002C005900D92E8
S1130070AC3AB107D9F70E948A000C94DC000C94C6
S1130080000015BA82BB82E085BB8FE19EE4019734
S1130090F1F700C0000015BA8FE19EE40197F1F773
S11300A000C00000089591E095BB82BB83E085BB4E
S11300B0EFE1FEE43197F1F700C0000095BB8FE15A
S11300C09EE40197F1F700C00000089583E084BB2B
S11300D08FEF81BB88E30E94410086E00E944100CB
S11300E08CE00E94410081E00E9441008FE19EE487
S11300F00197F1F700C000000895CF93DF93EC015E
S113010003C00E945300219688818111FACFDF91A8
S1130110CF91089588E087BB0E94660080E80E9422
S1130120410080E690E00E947D00C89B0EC013BE93
S113013080E80E94410086E690E00E947D0089E10B
S113014083BF12BE82E38CBF2FC0C99B0EC013BEF7
S113015080E80E94410088E790E00E947D0089E1E8
S113016083BF12BE88EC8CBF1FC0CA9B0EC013BED7
S113017080E80E9441008AE890E00E947D008AE1C4
S113018083BF12BE84E68CBF0FC0CB9B0DC013BED1
S113019080E80E9441008BE990E00E947D008BE1A1
S11301A083BF12BE84E68CBF83B7882309F4BDCF16
S10F01B008B601FEFDCFB9CFF894FFCFD4
S11301BC48454C4C4F004672657175656E63793ACF
S11301CC20313075732020004672657175656E633D
S11301DC793A203430757320200046726571756548
S11301EC6E63793A203136307573004672657175D9
S10F01FC656E63793A203332307573006D
S9030000FC
