S0200000496E7465727275707420536F6674776172652028414443292E7372656393
S11300000C942A000C943C000C943C000C943C008E
S11300100C943C000C943C000C943C000C943C006C
S11300200C943C000C943C000C943C000C943C005C
S11300300C943C000C943C000C943E000C943C004A
S11300400C943C000C943C000C943C000C943C003C
S11300500C943C0011241FBECFE5D4E0DEBFCDBF1D
S113006020E0A0E6B0E001C01D92A236B207E1F79D
S11300700E9492000C94CA000C9400001F920F92EC
S11300800FB60F9211242F938F939F93AF93BF9327
S113009084B195B1909361008093600085E082BB48
S11300A080E090E0DC0103C00196A11DB11D813404
S11300B02CE99207A105B105BCF312BA80E090E0E7
S11300C0DC0103C00196A11DB11D81342CE9920706
S11300D0A105B105BCF38AE082BB80E090E0DC01BD
S11300E003C00196A11DB11D81342CE99207A1051D
S11300F0B105BCF312BA80E090E0DC0103C00196C4
S1130100A11DB11D81342CE99207A105B105BCF3F1
S1130110BF91AF919F918F912F910F900FBE0F9030
S11301201F90189583E487B98EE886B987E084BB6D
S11301308FE081BB78948EEC86B9809160009091B9
S113014061008E33910518F087E085BB19C09C01CE
S1130150245331092A30310518F485E085BB10C0D9
S11301609C01295231092B30310518F486E085BBF6
S113017007C04F970A9718F484E085BB01C015BAED
S11301802FEF80E792E0215080409040E1F700C0DB
S10B01900000D1CFF894FFCF69
S9030000FC
