S01C000053776974636820285075736820427574746F6E292E73726563E9
S11300000C942A000C943F000C943F000C943F0085
S11300100C943F000C943F000C943F000C943F0060
S11300200C943F000C943F000C943F000C943F0050
S11300300C943F000C943F000C943F000C943F0040
S11300400C943F000C943F000C943F000C943F0030
S11300500C943F0011241FBECFE5D4E0DEBFCDBF1A
S113006010E0A0E6B0E0E2EAF1E002C005900D92F3
S1130070A63BB107D9F70E948F000C94CF000C94D3
S1130080000015BA82BB82E085BB8FE19EE4019734
S1130090F1F700C0000015BA8FE19EE40197F1F773
S11300A000C00000089591E095BB82BB83E085BB4E
S11300B0EFE1FEE43197F1F700C0000095BB8FE15A
S11300C09EE40197F1F700C0000008952FEF82E548
S11300D097E0215080409040E1F700C0000088E3A1
S11300E00E94410086E00E9441008CE00E94410091
S11300F081E00E9441008FE19EE40197F1F700C086
S113010000000895CF93DF93EC0103C00E945300D5
S1130110219688818111FACFDF91CF91089583E0F0
S113012084BB8FEF81BB1ABA0E946600C89B08C0CB
S113013080E80E94410080E690E00E948200F6CFB1
S1130140C99B08C080E80E94410081E790E00E94BA
S11301508200ECCFCA9B08C080E80E94410082E87C
S113016090E00E948200E2CFCB9B08C080E80E940E
S1130170410083E990E00E948200D8CF80E80E9489
S1130180410084EA90E00E9482002FEF89E698E122
S1130190215080409040E1F700C00000C7CFF894A0
S10501A0FFCF8B
S11301A2446174613A20474F50414C202020202062
S11301B200446174613A20524148554C2020202069
S11301C22000446174613A2041524A554E20202055
S11301D2202000446174613A20504157414E20204E
S11301E2202020004E6F20427574746F6E2050756B
S10901F27368656400005F
S9030000FC
