:100000000C942A000C9434000C9434000C943400AA
:100010000C9434000C9434000C9434000C94340090
:100020000C9434000C9434000C9434000C94340080
:100030000C9434000C9434000C9434000C94340070
:100040000C9434000C9434000C9434000C94340060
:100050000C94340011241FBECFE5D4E0DEBFCDBF29
:100060000E9436000C9450000C94000083E487B981
:1000700086E886B98FEF84BB83E081BB86EC86B9C6
:10008000349BFECF84B185BB85B182BB2FEF80E767
:1000900092E0215080409040E1F700C00000EECF98
:0400A000F894FFCF02
:00000001FF
