:100000000C942A000C9434000C9434000C943400AA
:100010000C9434000C9434000C9434000C94340090
:100020000C9434000C9434000C9434000C94340080
:100030000C9434000C9434000C9434000C94340070
:100040000C9434000C9434000C9434000C94340060
:100050000C94340011241FBECFE5D4E0DEBFCDBF29
:100060000E9440000C9454000C94000086B18064FF
:1000700086B9349BFECF84B185BB85B182BB089520
:1000800080E587B986E886B98FEF84BB83E081BBC2
:100090000E9436002FEF80E792E021508040904090
:0C00A000E1F700C00000F4CFF894FFCF9F
:00000001FF
