:100000000C942A000C9434000C9434000C943400AA
:100010000C9434000C9434000C9434000C94340090
:100020000C9434000C9434000C9434000C94340080
:100030000C9434000C9434000C9434000C94340070
:100040000C9434000C9434000C9434000C94340060
:100050000C94340011241FBECFE5D4E0DEBFCDBF29
:100060000E9436000C9449000C940000CF93DF935B
:100070001F92CDB7DEB780E487BB8DB98FEF81BB10
:10008000779BFECF8FB182BB8EB189838FB189837D
:06009000F7CFF894FFCF4A
:00000001FF
