S01A0000454550524F4D20496E746572666163696E672E73726563B8
S11300000C942A000C9434000C9434000C943400A6
S11300100C9434000C9434000C9434000C9434008C
S11300200C9434000C9434000C9434000C9434007C
S11300300C9434000C9434000C9434000C9434006C
S11300400C9434000C9434000C9434000C9434005C
S11300500C94340011241FBECFE5D4E0DEBFCDBF25
S11300600E944D000C945F000C940000E199FECFB7
S113007090E09FBB8EBB6DBB8CB384608CBB8CB398
S113008082608CBB0895E199FECF90E09FBB8EBB4C
S11300908CB381608CBB8DB308951ABA17BA8FEFF5
S11300A084BB11BA829B04C066B389B30E94360034
S11300B0869BF8CF89B30E94430085BBF3CFF894A5
S10500C0FFCF6C
S9030000FC
