:100000000C942A000C9434000C9434000C943400AA
:100010000C9434000C9434000C9434000C94340090
:100020000C9434000C9434000C9434000C94340080
:100030000C9434000C9434000C9434000C94340070
:100040000C9434000C9434000C9434000C94340060
:100050000C94340011241FBECFE5D4E0DEBFCDBF29
:100060000E9436000C9472000C940000CF93DF9332
:100070001F92CDB7DEB780EA87BB80E58DB983E0FC
:100080008ABB81BB8BBB82BB80E0989B05C092E0A2
:100090009BBB93E092BB14C0999B05C091E09BBBB6
:1000A00093E092BB0DC09A9B05C093E09BBB92E08E
:1000B00092BB06C09B9B04C093E09BBB91E092BBAC
:1000C0008FB9779BFECF9EB199839FB199832FEF14
:1000D00039E698E1215030409040E1F700C000003F
:0800E0008F5FD3CFF894FFCF2E
:00000001FF
