S01E00004D756C7469706C652041444320496E746572666163652E7372656321
S11300000C942A000C9434000C9434000C943400A6
S11300100C9434000C9434000C9434000C9434008C
S11300200C9434000C9434000C9434000C9434007C
S11300300C9434000C9434000C9434000C9434006C
S11300400C9434000C9434000C9434000C9434005C
S11300500C94340011241FBECFE5D4E0DEBFCDBF25
S11300600E9448000C9477000C94000090E497B927
S113007096E896B997B1892B87B9089586B18064BB
S113008086B9349BFECF84B185BB85B182BB08950C
S11300908FEF84BB83E081BB80E00E9436000E9426
S11300A03E002FEF89E698E1215080409040E1F72F
S11300B000C0000084E00E9436000E943E002FEF42
S11300C089E698E1215080409040E1F700C00000AB
S11300D087E00E9436000E943E002FEF89E698E1F7
S11300E0215080409040E1F700C00000D5CFF89443
S10500F0FFCF3C
S9030000FC
