S01200005350492D4D61737465722E737265638D
S11300000C942A000C9434000C9434000C943400A6
S11300100C9434000C9434000C9434000C9434008C
S11300200C9434000C9434000C9434000C9434007C
S11300300C9434000C9434000C9434000C9434006C
S11300400C9434000C9434000C9434000C9434005C
S11300500C94340011241FBECFE5D4E0DEBFCDBF25
S11300600E9436000C9455000C940000CF93DF934B
S11300701F92CDB7DEB780EA87BB80E58DB980E0FB
S113008011C08FB9779BFECF9EB199839FB199839D
S11300902FEF39E698E1215030409040E1F700C05D
S11100A000008F5F8F3F69F7EACFF894FFCF1F
S9030000FC
