:100000000C942A000C9434000C9434000C943400AA
:100010000C9434000C9434000C9434000C94340090
:100020000C9434000C9434000C9434000C94340080
:100030000C9434000C9434000C9434000C94340070
:100040000C9434000C9434000C9434000C94340060
:100050000C94340011241FBECFE5D4E0DEBFCDBF29
:100060000E9446000C94A4000C94000090E497B900
:1000700096E896B997B1892B87B9089586B18064BF
:1000800086B9349BFECF84B195B1089587E084BBD7
:1000900081BB80E00E9436000E943E008E339105B5
:1000A0001CF087E085BB19C09C01245331092A301C
:1000B000310518F485E085BB10C09C012952310937
:1000C0002B30310518F486E085BB07C04F970A979F
:1000D00018F484E085BB01C015BA2FEF80E792E0E9
:1000E000215080409040E1F700C0000081E00E9474
:1000F00036000E943E008E3391051CF087E082BBE3
:1001000019C09C01245331092A30310518F485E0C7
:1001100082BB10C09C01295231092B30310518F4E3
:1001200086E082BB07C04F970A9718F484E082BB31
:1001300001C012BA2FEF80E792E02150804090403A
:0C014000E1F700C00000A5CFF894FFCF4D
:00000001FF
