S02B000054696D6572302043544320284672657175656E63792047656E657261746F7229204D6F64652E737207
S11300000C942A000C9434000C9434000C943400A6
S11300100C9434000C9434000C9434000C9434008C
S11300200C9434000C9434000C9434000C9434007C
S11300300C9434000C9434000C9434000C9434006C
S11300400C9434000C9434000C9434000C9434005C
S11300500C94340011241FBECFE5D4E0DEBFCDBF25
S11300600E9436000C9460000C94000089E183BF68
S113007088E087BB12BE81E08CBFC89B06C089E1C3
S113008083BF12BE82E38CBF17C0C99B06C089E13F
S113009083BF12BE88EC8CBF0FC0CA9B06C08AE126
S11300A083BF12BE84E68CBF07C0CB9B05C08BE127
S11300B083BF12BE84E68CBF08B601FEFDCFDDCF40
S10700C0F894FFCFDE
S9030000FC
