S01500004C43445F496E746572666163652E737265634C
S11300000C942A000C943F000C943F000C943F0085
S11300100C943F000C943F000C943F000C943F0060
S11300200C943F000C943F000C943F000C943F0050
S11300300C943F000C943F000C943F000C943F0040
S11300400C943F000C943F000C943F000C943F0030
S11300500C943F0011241FBECFE5D4E0DEBFCDBF1A
S113006010E0A0E6B0E0E0E1F2E002C005900D92FD
S1130070AC37B107D9F70E948F000C9406010C9499
S1130080000015BA82BB82E085BB8FE19EE4019734
S1130090F1F700C0000015BA8FE19EE40197F1F773
S11300A000C00000089591E095BB82BB83E085BB4E
S11300B0EFE1FEE43197F1F700C0000095BB8FE15A
S11300C09EE40197F1F700C0000008952FEF82E548
S11300D097E0215080409040E1F700C0000088E3A1
S11300E00E94410086E00E9441008CE00E94410091
S11300F081E00E9441008FE19EE40197F1F700C086
S113010000000895CF93DF93EC0103C00E945300D5
S1130110219688818111FACFDF91CF91089583E0F0
S113012084BB8FEF81BB0E9466008FE80E94410070
S113013084E00E94410080E690E00E9482002FEF5C
S113014089E698E1215080409040E1F700C000002A
S113015081E00E9441008FE19EE40197F1F700C025
S113016000008FEC0E94410084E00E94410089E677
S113017090E00E9482009FEF29E688E191502040A0
S11301808040E1F700C0000081E00E9441008FE15F
S11301909EE40197F1F700C0000088E80E94410046
S11301A084E00E9441008FE690E00E9482009FEF6D
S11301B029E688E1915020408040E1F700C000002A
S11301C081E00E9441008FE19EE40197F1F700C0B5
S11301D0000088EC0E94410084E00E94410085E711
S11301E090E00E9482009FEF29E688E19150204030
S11301F08040E1F700C0000081E00E9441008FE1EF
S11302009EE40197F1F700C000008FCFF894FFCF70
S11302104E494D414E534855004C41504F47004EB6
S10F0220554A5241004B554E414C000021
S9030000FC
