S01B000054696D6572305F47656E65726174655F3175732E73726563D6
S11300000C942A000C9434000C9434000C943400A6
S11300100C9434000C9434000C9434000C9434008C
S11300200C9434000C9434000C9434000C9434007C
S11300300C9434000C9434000C9434000C9434006C
S11300400C9434000C9434000C9434000C9434005C
S11300500C94340011241FBECFE5D4E0DEBFCDBF25
S11300600E9436000C9443000C94000081E083BF8E
S11300708ABB1BBA87EF82BF08B600FEFDCF8BB3E5
S10D008080958BBBF7CFF894FFCFF7
S9030000FC
